S0120000466C61707079426972642E7372656325
S11300000C942C060C9454060C9454060C9454062C
S11300100C9454060C9454060C9454060C945406F4
S11300200C9454060C9454060C9454060C945406E4
S11300300C9454060C9454060C9454060C945406D4
S11300400C9454060C9454060C9454060C945406C4
S11300500C94540605A84CCDB2D44EB93836A90236
S11300600C50B9918688083CA6AAAA2ABE000000B2
S1130070803F1010205F000000000000000000001E
S1130080000000000000000000000000000000006C
S11300900000000000000000000007000F800F8037
S11300A00F800F800F80070007000000000007008A
S11300B007000700000000000E380E380E380E3816
S11300C006300000000000000000000000000000F6
S11300D000000000000000000C300C300C307FFEEB
S11300E07FFE0C300C300C300C307FFE7FFE0C3069
S11300F00C300C3000000000024002400FF81FF8E2
S11301001A401A401FF00FF8025802581FF81FF047
S11301100240024000000000000000000E100E30FB
S11301200E7000E001C0038007000E700C700870B0
S1130130000000000000000000000F00198019807A
S113014019800F000F080F9819F818F018E019F02B
S11301500F980000000000000000070007000700DF
S11301600E0000000000000000000000000000007D
S11301700000000000000000000000F001C0038047
S113018007000E000E000E000E000700038001C0E1
S113019000F000000000000000000F00038001C018
S11301A000E0007000700070007000E001C0038087
S11301B00F00000000000000000001801188099079
S11301C007E007E03FFC3FFC07E007E009901188E7
S11301D00180000000000000000000000000018019
S11301E0018001800FF00FF0018001800180000088
S11301F000000000000000000000000000000000FB
S113020000000000000000000000000007000700DC
S113021007000E00000000000000000000000000C5
S1130220000000001FF81FF800000000000000009C
S113023000000000000000000000000000000000BA
S1130240000000000000000000000000070007009C
S11302500700000000000000000000020006000E7D
S1130260001C0038007000E001C0038007000E008D
S11302701C0000000000000000000FF01C381C7877
S11302801CF81CF81DB81DB81F381F381E381C3840
S11302900FF00000000000000000018001800380D6
S11302A01F801F80038003800380038003800380FA
S11302B01FF000000000000000000FE01C701C385C
S11302C00038007000E001C0038007000E381C38BD
S11302D01FF800000000000000000FE01C701C3834
S11302E00038007003C003C0007000381C381C7054
S11302F00FE0000000000000000000E001E003E067
S113030006E00CE018E01FF81FF800E000E000E051
S113031003F800000000000000001FF81C001C008F
S11303201C001C001FE01FF0007800381C381C70F3
S11303300FE0000000000000000003E007000E00D2
S11303401C001C001FF01FF81C381C381C381C38FB
S11303500FF000000000000000001FFC1C1C1C1C0F
S11303601C1C001C0038007000E001C003800380E6
S1130370038000000000000000000FF01C381C384F
S11303801C381F3807E007E01CF81C381C381C38E0
S11303900FF000000000000000000FF01C381C38B3
S11303A01C381C381FF80FF800380038007000E0C3
S11303B007C00000000000000000000000000380EF
S11303C0038003800000000003800380038000009A
S11303D00000000000000000000000000000038096
S11303E00380038000000000038003800380070073
S11303F00000000000000000007000E001C0038065
S113040007000E001C001C000E000700038001C042
S113041000E0007000000000000000000000000088
S11304203FFC3FFC000000003FFC3FFC00000000DC
S113043000000000000000001C000E000700038004
S113044001C000E00070007000E001C003800700FC
S11304500E001C000000000003C00FF01E781838C6
S11304600038007000E001C001C00000000001C0BD
S113047001C001C0000000000FF81C1C1C1C1C1C47
S11304801C1C1CFC1CFC1CFC1CFC1C001C001C007C
S11304901FF007F800000000000003C007E00E7022
S11304A01C381C381C381C381FF81C381C381C38E5
S11304B01C3800000000000000001FF00E380E3849
S11304C00E380E380FF00FF00E380E380E380E3886
S11304D01FF0000000000000000007F00E381C3878
S11304E01C001C001C001C001C001C001C380E38C6
S11304F007F000000000000000001FE00E700E383E
S11305000E380E380E380E380E380E380E380E707F
S11305101FE000000000000000001FF80E180E0885
S11305200E000E300FF00FF00E300E000E080E18F5
S11305301FF800000000000000001FF80E180E084D
S11305400E000E300FF00FF00E300E000E000E00F5
S11305501F00000000000000000007F00E381C38E7
S11305601C381C001C001C001CF81C381C380E38DD
S113057007F800000000000000001C701C701C70D4
S11305801C701C701FF01FF01C701C701C701C7001
S11305901C7000000000000000000FE003800380D6
S11305A0038003800380038003800380038003802F
S11305B00FE0000000000000000001FC007000706B
S11305C000700070007000703870387038703870C7
S11305D00FE000000000000000001E380E380E700E
S11305E00EE00FC00F800F800FC00EE00E700E38AB
S11305F01E3800000000000000001F000E000E0066
S11306000E000E000E000E000E000E080E180E381E
S11306101FF800000000000000001C1C1E3C1F7C92
S11306201FFC1FFC1DDC1C9C1C1C1C1C1C1C1C1CFF
S11306301C1C00000000000000001C1C1C1C1E1CD4
S11306401F1C1F9C1DDC1CFC1C7C1C3C1C1C1C1C3F
S11306501C1C000000000000000003E007F00E383E
S11306601C1C1C1C1C1C1C1C1C1C1C1C0E3807F0F9
S113067003E000000000000000001FF00E380E38F8
S11306800E380E380FF00FF00E000E000E000E00A4
S11306901F00000000000000000003E00F780E3887
S11306A01C1C1C1C1C1C1C1C1C7C1CFC0FF80FF8A8
S11306B0003800FC0000000000001FF00E380E3867
S11306C00E380E380FF00FF00E700E380E380E384C
S11306D01E3800000000000000000FF01C381C3819
S11306E01C381C000FE007F000381C381C381C387C
S11306F00FF000000000000000001FFC19CC11C422
S113070001C001C001C001C001C001C001C001C0DD
S113071007F000000000000000001C701C701C703A
S11307201C701C701C701C701C701C701C701C7065
S11307300FE000000000000000001C701C701C7022
S11307401C701C701C701C701C701C700EE007C0A8
S1130750038000000000000000001C1C1C1C1C1C6A
S11307601C1C1C1C1C9C1C9C1C9C0FF80FF8077068
S1130770077000000000000000001C701C701C705A
S11307800EE007C00380038007C00EE01C701C70DD
S11307901C7000000000000000001C701C701C7025
S11307A01C701C700EE007C003800380038003806C
S11307B00FE000000000000000001FF81C3818388B
S11307C0107000E001C0038007000E081C181C38DC
S11307D01FF8000000000000000007F007000700F9
S11307E007000700070007000700070007000700CD
S11307F007F00000000000000000100018001C00BA
S11308000E000700038001C000E000700038001CE7
S11308100007000000000000000007F000700070F6
S11308200070007000700070007000700070007044
S113083007F0000000000000018003C007E00E7014
S11308401C38000000000000000000000000000050
S11308500000000000000000000000000000000094
S11308600000000000000000000000000000000084
S113087000007FFF7FFF000000001C001C00070039
S1130880070000000000000000000000000000005D
S11308900000000000000000000000000000000054
S11308A000000FE0007000700FF01C701C701C70D2
S11308B00FD800000000000000001E000E000E0013
S11308C00E000FF00E380E380E380E380E380E3873
S11308D01BF0000000000000000000000000000009
S11308E000000FE01C701C701C001C001C701C70AD
S11308F00FE0000000000000000000F8007000702D
S113090000700FF01C701C701C701C701C701C702C
S11309100FD80000000000000000000000000000EC
S113092000000FE01C701C701FF01C001C701C7079
S11309300FE0000000000000000003E007700770F3
S1130940070007001FE01FE007000700070007007B
S11309501FC00000000000000000000000000000B4
S113096000000FD81C701C701C701C700FF007F076
S113097000701C700FE0000000001E000E000E004E
S11309800E000EF00F380F380E380E380E380E38B1
S11309901E38000000000000000001C001C001C0BA
S11309A000000FC001C001C001C001C001C001C0EE
S11309B00FF80000000000000000007000700070DC
S11309C0000003F000700070007000700070007090
S11309D01C700CF007E0000000001E000E000E006A
S11309E00E000E380E700EE00FC00EE00E700E38C2
S11309F01E3800000000000000000FC001C001C04C
S1130A0001C001C001C001C001C001C001C001C0DA
S1130A100FF80000000000000000000000000000CB
S1130A2000001FF81C9C1C9C1C9C1C9C1C9C1C9C5B
S1130A301C9C0000000000000000000000000000FA
S1130A4000001FE01C701C701C701C701C701C705B
S1130A501C70000000000000000000000000000006
S1130A6000000FE01C701C701C701C701C701C704B
S1130A700FE0000000000000000000000000000083
S1130A8000001BF00E380E380E380E380E380FF0FA
S1130A900E000E001F000000000000000000000017
S1130AA000001FB038E038E038E038E038E01FE0FC
S1130AB000E000E001F00000000000000000000081
S1130AC000001EF00FF80F380E000E000E000E008E
S1130AD01F000000000000000000000000000000F3
S1130AE000000FE01C301C300F8003E018701870F9
S1130AF00FE00000000000000000000001000300FF
S1130B0007001FF0070007000700070007700770C1
S1130B1003E00000000000000000000000000000EE
S1130B2000001C701C701C701C701C701C701C70ED
S1130B300FD80000000000000000000000000000CA
S1130B4000001C701C701C701C701C700EE007C030
S1130B50038000000000000000000000000000000E
S1130B6000001C1C1C1C1C1C1C9C1C9C0FF80770EB
S1130B7007700000000000000000000000000000FA
S1130B8000001CE01CE00FC0078007800FC01CE0C1
S1130B901CE0000000000000000000000000000055
S1130BA000000E380E380E380E380E3807F003E009
S1130BB000E001C01F8000000000000000000000F1
S1130BC000001FE018E011C0038007000E201C6025
S1130BD01FE0000000000000000001F80380038013
S1130BE0038007001C001C000700038003800380AF
S1130BF001F800000000000001C001C001C001C0F4
S1130C0001C001C001C001C001C001C001C001C0D8
S1130C1001C001C00000000000001F8001C001C02D
S1130C2001C000E00038003800E001C001C001C08C
S1130C301F8000000000000000001F1C3B9C39DCEA
S1130C4038F8000000000000000000000000000070
S1130C500000000000000A0911241FBECFE5D4E003
S1130C60DEBFCDBF10E0A0E6B0E0EAE2F5E202C0EC
S1130C7005900D92A037B107D9F722E0A0E7B0E0C4
S1130C8001C01D92A531B207E1F716E0CCE2D6E02F
S1130C9004C02197FE010E940312CB32D107C9F789
S1130CA00E9483070C9493120C940000A5B3BA2FEE
S1130CB06894A7F9E894B7F9FB01059007FA1EF4C4
S1130CC04BBB52BB02C02BBB32BBB5BBA5BB06FAA8
S1130CD01EF44BBB52BB02C02BBB32BBB5BBA5BB86
S1130CE005FA1EF44BBB52BB02C02BBB32BBB5BBD7
S1130CF0A5BB04FA1EF44BBB52BB02C02BBB32BBD8
S1130D00B5BBA5BB03FA1EF44BBB52BB02C02BBB45
S1130D1032BBB5BBA5BB02FA1EF44BBB52BB02C02F
S1130D202BBB32BBB5BBA5BB01FA1EF44BBB52BBFC
S1130D3002C02BBB32BBB5BBA5BB00FA1EF44BBB38
S1130D4052BB02C02BBB32BBB5BBA5BB815090408C
S1130D508030910511F00C945D060895A5B3BA2F67
S1130D606894A7F9E894B7F9FB01059002BA0590D5
S1130D700BBAB5BBA5BB815090408030910511F0F2
S1130D800C94B5060895A5B3BA2F6894A7F9E8940E
S1130D90B7F9FC01112425912030A9F027FB56F462
S1130DA02F77059002BA05900BBAB5BBA5BB2A955F
S1130DB0E1F7F1CF059002BA05900BBAB5BBA5BB1C
S1130DC02A95C1F7E8CF00240895222786957795C0
S1130DD067952795769567952795769567952795D1
S1130DE07695679527952295CB01E5B3FE2F6894F8
S1130DF0E7F9E894F7F9009711F1F5BBE5BBF5BB0A
S1130E00E5BBF5BBE5BBF5BBE5BBF5BBE5BBF5BB9E
S1130E10E5BBF5BBE5BBF5BBE5BBF5BBE5BBF5BB8E
S1130E20E5BBF5BBE5BBF5BBE5BBF5BBE5BBF5BB7E
S1130E30E5BBF5BBE5BBF5BBE5BB0197F1F620309F
S1130E4021F0F5BBE5BB2A95E1F70895AF98AF9A79
S1130E506150704080409040C9F70895AE981124C5
S1130E608BBB12BAAF98AF9A0895AE9A6BBB82BB94
S1130E70AF98AF9A0895AE9A11248BBB12BAAF986B
S1130E80AF9A0895AE9811248BBB12BAAF98AF9A5B
S1130E90AE9A6BBB72BBAF98AF9A089582BB6BBB23
S1130EA0AF98AF9A08950F931F93CF93DF93019751
S1130EB029F56F3F7F4F11F582E092E00E941E0AF0
S1130EC001E310E0C2E7D0E00F3F8FEF1807B1F065
S1130ED08CED90E09983888381E090E09B838A8302
S1130EE00E9464126CE271E00E94A6119D838C83BF
S1130EF01F821E82289601501109E6CFDF91CF91FF
S1130F001F910F910895CF93DF93CDB7DEB7289744
S1130F100FB6F894DEBF0FBECDBF8FEF88BB17BAF4
S1130F2082E092E00E94D80A61E082E092E00E94AE
S1130F30560B0F2EF6E98F2E912CFCE3AF2EB12C1D
S1130F40F02DE12CF12C22E3E216F10434F58CEDC2
S1130F5090E09A83898381E090E09C838B830E9454
S1130F6064126CE271E00E94A6119E838D83188640
S1130F701F82D701AA0FBB1FAA0FBB1FAA0FBB1F3B
S1130F80AE58BF4F88E0FE01319601900D928A95CC
S1130F90E1F73FEFE31AF30AD6CFE12CF12C80916D
S1130FA0640090916500E816F9060CF058C0F7014A
S1130FB0EE0FFF1FEE0FFF1FEE0FFF1FEE58FF4F48
S1130FC086819781892B09F046C0C701880F991F34
S1130FD0880F991F880F991FFC01EE58FF4F6F016E
S1130FE020E04FEF60E082E092E00E940E0BF601F9
S1130FF0408151818A01065F1F4F8481958120E4DD
S113100031E0281B390B6FE371E082E092E00E942B
S1131010780AF601408151818A01065F1F4F84815D
S1131020958160EF70E0681B790B20E030E082E08E
S113103092E00E94780AF6018081918122813381B5
S1131040821B930B9183808399232CF4F60181E016
S113105090E097838683FFEFEF1AFF0AA0CF2091D9
S11310607000309171002F5F3F4F309371002093D7
S113107070002035310589F40196909365008093C2
S11310806400C39734F082E390E09093650080930A
S1131090640010927100109270002FEF4FEF6FEF09
S11310A082E092E00E940E0B2AE030E0A501B40138
S11310B082E092E00E949F0BB09916C0C4010A9688
S11310C04C01EFEFF3E23197F1F700C000000A960C
S11310D08C339140ECF00F2EF6E38F2E99249394E9
S11310E0F02D80E090E019C0C40104974C01EFEFAB
S11310F0F3E23197F1F700C000000A9705975CF41A
S11311000F2EF5E08F2E912CF02D80E090E005C09D
S113111080E090E002C080E090E020916400309193
S11311206500821793070CF06AC0FC01EE0FFF1FE5
S1131130EE0FFF1FEE0FFF1FEE58FF4F2681378182
S1131140232B09F05AC0FC01EE0FFF1FEE0FFF1F07
S1131150EE0FFF1FEE58FF4F4481558120E431E02C
S1131160241B350BB401665F7F4F2617370754F0F5
S113117020EF30E0241B350BA4014A5051094217DB
S11311805307DCF5FC01EE0FFF1FEE0FFF1FEE0F00
S1131190FF1FEE58FF4F20813181A501465F5F4F4D
S11311A02417350754F5265F3F4F44515109421720
S11311B053071CF582E092E00E94D80A60E082E0C6
S11311C092E00E94560B20E040E06FEF82E092E054
S11311D00E940E0B62E770E082E092E00E94480FEA
S11311E000E010E02EE037E24EE057E266E670E001
S11311F082E092E00E946D0EFFCF01968ECF8FEFBA
S113120093E20197F1F700C0000082E092E00E94AF
S1131210D80AC3CE6FEF7FEF81E090E00E945307BE
S113122008958FEF8ABB81BB84B3806484BB84B38D
S1131230806884BB84B3826084BB87B3806287BBCD
S113124088B3806288BB84B3816084BB85B38260C9
S113125085BB84B3826084BB85B3816085BB8FEF1B
S113126093E20197F1F700C0000085B38E7F85BB40
S11312708FEF9BE60197F1F700C0000085B3816012
S113128085BB8FEF9BE60197F1F700C0000085B3A3
S11312908D7F85BB61E070E080E00E94420764EAD4
S11312A078EA83E00E94420760E070E08CE00E94EC
S11312B042076CE078E08DE00E94420760E07BE248
S11312C08EE00E94420767EB70E08EE10E944207C5
S11312D06FE37BE281E00E94420760E076E082E017
S11312E00E94420760E070E080E10E94420760E7EC
S11312F070E681E10E94420760E070E085E00E94B0
S1131300420760E070E086E00E9442076CE17FEEF5
S113131086E10E94420763E070E087E10E94420791
S113132063E372E087E00E94420760E070E08BE0D4
S11313300E94420760E070E08FE00E94420760E094
S113134070E081E40E94420760E070E082E40E9461
S1131350420760E070E088E40E9442076FE371E0B6
S113136089E40E94420760E070E08AE40E94420738
S113137060E070E08BE40E94420760E07FEE84E46A
S11313800E94420760E070E085E40E9442076FE338
S113139071E086E40E94420767E077E080E30E9400
S11313A0420764E072E081E30E94420764E072E075
S11313B082E30E94420762E075E083E30E944207F1
S11313C067E075E084E30E94420764E072E085E32D
S11313D00E94420764E072E086E30E94420762E0F2
S11313E075E087E30E94420762E073E08AE30E94AB
S11313F0420762E073E08BE30E94420760E070E022
S113140083E20E94420760E070E084E20E944207A7
S113141060E070E885E20E94420760E070E08FE4DB
S11314200E94420760E070E08EE40E94420782E27C
S11314300E942E0785B3826085BB08954FEE50E06D
S113144060E070E0FC0145835683678370874FE357
S113145051E060E070E041875287638774870E949F
S113146011090895EF92FF920F931F93CF93DF9387
S1131470EB01E42EF52EFC014481413089F4818591
S11314809285A385B485AC01461B570B821B930B35
S1131490202F312F042F152FCE2DDF2DE82EF92EDE
S11314A0322F2227BE01620F731F84E40E94420779
S11314B06E2D7F2D85E40E944207602F712F86E4F4
S11314C00E944207BE018EE40E9442076E2D7F2DCA
S11314D08FE40E94420782E20E942E0785B3806453
S11314E085BBDF91CF911F910F91FF90EF900895ED
S11314F08F929F92AF92BF92CF92DF92EF92FF9220
S11315000F931F93CF93DF934C015B017A01690121
S1131510E8012617370724F48B2D5901C62ED82E3F
S1131520CE15DF052CF49E2D8F2D7E01C92FD82FCB
S113153085B38D7F85BB8E019601A701B501C401DA
S11315400E94320AF401808182BB81818BBB9601A7
S11315502A193B09C901330FAA0BBB0B9C01AD012E
S11315602F5F3F4F4F4F5F4FBE016E197F09CB0175
S1131570770FAA0BBB0BBC01CD016F5F7F4F8F4F61
S11315809F4F0E9496110E94E5068FEF8BBB82BB92
S113159085B38D7F85BBDF91CF911F910F91FF9014
S11315A0EF90DF90CF90BF90AF909F908F90089571
S11315B085B38D7F85BB60E07FEE84E40E944207A3
S11315C060E070E085E40E9442076FE371E086E426
S11315D00E94420760E070E08EE40E94420760E0EF
S11315E070E08FE40E94420768E770E681E10E94A0
S11315F0420782E20E942E0785B3806485BB1BBA32
S113160012BA60E07CE281E090E00E94E5068FEF90
S11316108BBB82BB85B38D7F85BB0895E42FF0E03F
S1131620F595E795F595E795F595E795F595E7959E
S1131630F595E795687FE62BDC01EC934C7150E05F
S1131640440F551F440F551F440F551F30E0359567
S113165027953595279535952795422B11964C93CB
S11316600895E42FF0E0F595E795F595E795F59560
S1131670E795F595E795F595E795687FE62BDC0109
S11316801296EC9312974C7150E0440F551F440F7F
S1131690551F440F551F30E03595279535952795EF
S11316A035952795422B13964C930895CF93DF934A
S11316B0EC016C832FEF4FEF6FEF0E940E0B20E0D5
S11316C040E060E0CE010E94310B1E861D86DF9152
S11316D0CF910895872F0E9435070895EF92FF92C6
S11316E00F931F93CF93DF937C01E901DD232CF447
S11316F0620F731FD195C195D10985B38D7F85BBC9
S11317009B012C0F3D1F8A01C7010E94320AF70179
S1131710808182BB81818BBBBE01DD0F880B990B5D
S11317200E94E5068FEF8BBB82BB85B3826085BBCD
S1131730DF91CF911F910F91FF90EF9008954F92F9
S11317405F926F927F928F929F92AF92BF92CF924D
S1131750DF92EF92FF920F931F93CF93DF933C019D
S11317604B015A01790144245524421A530A820137
S113177010161106CCF1E2011C161D0694F1CC9F43
S1131780C001CD9F900D900D1124009F9001019FE9
S1131790300D300D1124820F931FEE9C9001EF9CAD
S11317A0300D300D112428173907CCF0CC24DD245A
S11317B0CC1ADD0ACC0CDD1CC80DD91D9601A8017C
S11317C04A0D5B1DBE01C3010E946E0B9601A5016B
S11317D0401B510BBE01C3010E946E0B02C0219637
S11317E0CBCF0F5F1F4FC4CFDF91CF911F910F91CC
S11317F0FF90EF90DF90CF90BF90AF909F908F902D
S11318007F906F905F904F900895AF92BF92CF9268
S1131810DF92EF92FF920F931F93CF93DF93EC012C
S11318207A01890185B38D7F85BB8C81811169C063
S11318302989862F90E0821B91094F85542F569554
S113184056955695288930E0529FB001539F700DEC
S11318501124869F6001879FD00C969FD00C112481
S113186084E0C80ED11CC701840F911D200F311FC5
S1131870590141E0A41AB10860E070E07FEF780FED
S11318806E0D7F1D84E40E944207B80185E40E9426
S11318904207B50186E40E944207B7018EE40E9424
S11318A04207B8018FE40E94420760E770E681E1D5
S11318B00E94420782E20E942E0785B3806485BBA2
S11318C02A8130E0322F22278B81282B488150E057
S11318D0542F44278981482B6D857E856C0D7D1D91
S11318E088899F85899FC001112499230CF4079648
S11318F09595879595958795959587950E94560614
S11319006FC02989862F90E0821B91094F85542F3F
S1131910569556955695288930E0529FB001539FAD
S1131920700D1124869F6001879FD00C969FD00C68
S1131930112484E0C80ED11CC701840F911D0197A6
S1131940200F311F49855A856B857C855A01AE1855
S1131950BF087A01E81AF90A60E070E07FEF720FBD
S1131960600F711F84E40E944207B70185E40E945E
S11319704207B50186E40E944207B8018EE40E9442
S11319804207B5018FE40E94420768E570E681E1F1
S11319900E94420782E20E942E0785B3806485BBC1
S11319A02A8130E0322F22278B81282B488150E076
S11319B0542F44278981482B6D857E856C0D7D1DB0
S11319C088899F85899FC001112499230CF4079667
S11319D09595879595958795959587950E94560633
S11319E085B3826085BBDF91CF911F910F91FF90EA
S11319F0EF90DF90CF90BF90AF9008952F923F92D9
S1131A004F925F926F927F928F929F92AF92BF920A
S1131A10CF92DF92EF92FF920F931F93CF93DF93B6
S1131A20CDB7DEB76B970FB6F894DEBF0FBECDBF50
S1131A305C0169833A0149011F8B0E8BB701FF0CCE
S1131A40880B990B0E940D1029E23CE54FE85CE3FA
S1131A500E94D810698B7A8B8B8B9C8B85B38D7F7E
S1131A6085BBD50151968C91B9812B2F30E0281B71
S1131A703109F50187858695869586959089899F94
S1131A80C0011124289FA001299F500D389F500D9B
S1131A9011249A012C5F3F4F398F288F1D8AD5015D
S1131AA050968C91BD89B81708F0FBC0412C512C7D
S1131AB0F5018785869586958695282F30E0421610
S1131AC053060CF0E4C00584F685E02D888D998DCD
S1131AD0840D951DE80FF91F2490312C3A8E2B8E1E
S1131AE0FA8DF83008F0CFC02F2E312CB201660FDA
S1131AF0771F660F771F660F771F620D731DD50161
S1131B001F962C91EE89FF892E9FC0012F9F900D67
S1131B101124680F791F072E000C880B990B0E9463
S1131B200D1069837A838B839C8369897A898B8975
S1131B309C890E94D00F6D837E838F8398879B013D
S1131B40AC0169817A818B819C810E94D8106B01E0
S1131B507C01FD896F2F70E080E090E00E940D1001
S1131B6069877A878B879C8769897A898B899C891D
S1131B700E9445116D877E878F87988B9B01AC01EE
S1131B8069857A858B859C850E94D8109B01AC0160
S1131B90C701B6010E94630F6B017C01B301072CDE
S1131BA0000C880B990B0E940D10A70196010E944E
S1131BB0640F0E94D50F6B017C0129853A854B8502
S1131BC05C856D817E818F8198850E94D8106D839C
S1131BD07E838F8398872D853E854F8558896981BB
S1131BE07A818B819C810E94D8109B01AC016D810C
S1131BF07E818F8198850E94640F69837A838B83A9
S1131C009C83B401092C000C880B990B0E940D10C5
S1131C1029813A814B815C810E94640F0E94D50F17
S1131C208B010F5F1F4F96012F5F3F4FAB01B60132
S1131C30C5010E94320A27E030E0221933094B8D96
S1131C40842F90E002C0959587952A95E2F780FF4E
S1131C500CC0D5016C9170E0762F662711968C919B
S1131C60682BC5010E946A0B0AC0F501628170E00D
S1131C70762F66278381682BC5010E946A0BFA8D33
S1131C80FF5FFA8F2DCF2FEF421A520A11CF488DE2
S1131C90598D480F511D598F488F5D895F5F5D8B4A
S1131CA0FECE85B3826085BB6B960FB6F894DEBF1B
S1131CB00FBECDBFDF91CF911F910F91FF90EF9099
S1131CC0DF90CF90BF90AF909F908F907F906F9058
S1131CD05F904F903F902F9008952F923F924F9294
S1131CE05F926F927F928F929F92AF92BF92CF92A8
S1131CF0DF92EF92FF920F931F93CF93DF93EC0148
S1131D00FB015A0129016801DB010D900020E9F76C
S1131D101197A61BB70B4D018C8181113EC04F302A
S1131D20574281F44D815E816F8178852F852A9F8A
S1131D30C0012B9F900D1124481B590B5A011FEF12
S1131D40A11AB10A2EE0A21627E2B20609F061C078
S1131D504D815E816F8178854F5F5F4F6F4F7F4FFD
S1131D602F852A9FC0012B9F900D1124092E000C52
S1131D70AA0BBB0B8A019B01081B190B2A0B3B0BFB
S1131D80B901A80122F44F5F5F4F6F4F7F4F7595E4
S1131D906795579547955A013CC04F30574281F497
S1131DA049855A856B857C852F852A9FC0012B9F89
S1131DB0900D1124481B590B5A012FEFA21AB20A95
S1131DC03EE0A31637E2B30621F549855A856B85B3
S1131DD07C854F5F5F4F6F4F7F4F2F852A9FC001D8
S1131DE02B9F900D1124092E000CAA0BBB0B8A010A
S1131DF09B01081B190B2A0B3B0BB901A80122F408
S1131E004F5F5F4F6F4F7F4F759567955795479518
S1131E105A01612C712C681479043CF5C114D10465
S1131E2099F48F85869DA001879D500D11244A0D3C
S1131E305B1D1F011FEF211A310A60819201CE013F
S1131E400E94050CF1010DC01F012FEF221A320A66
S1131E506081760183019201A501CE010E94FE0CEE
S1131E60F1013FEF631A730AD6CFDF91CF911F912F
S1131E700F91FF90EF90DF90CF90BF90AF909F9025
S1131E808F907F906F905F904F903F902F90089528
S1131E90DC011E967C936E931D97FB0184911F9623
S1131EA08C931F973196E4915096EC935097FB01D5
S1131EB03296E4915196EC935197FB0133966491D9
S1131EC052966C9308955058BB27AA270E947B0F03
S1131ED00C948A100E94511038F00E94581020F07F
S1131EE039F49F3F19F426F40C944E100EF4E09547
S1131EF0E7FB0C944810E92F0E94AF1058F3BA176F
S1131F00620773078407950720F079F4A6F50C940B
S1131F10D1100EF4E0950B2EBA2FA02D0B01B901B0
S1131F2090010C01CA01A0011124FF27591B99F04B
S1131F30593F50F4503E68F11A16F040A22F232F57
S1131F40342F4427585FF3CF469537952795A795A7
S1131F50F0405395C9F77EF41F16BA0B620B730B4E
S1131F60840BBAF09150A1F0FF0FBB1F661F771FBF
S1131F70881FC2F70EC0BA0F621F731F841F48F474
S1131F80879577956795B795F7959E3F08F0B0CFFD
S1131F909395880F08F09927EE0F979587950895E4
S1131FA00E946110E3950C949B100E94DC0F6894CE
S1131FB0B1110C94D21008950E94B71088F09F5765
S1131FC098F0B92F9927B751B0F0E1F0660F771F59
S1131FD0881F991F1AF0BA95C9F714C0B13091F04F
S1131FE00E94D110B1E008950C94D110672F782F7E
S1131FF08827B85F39F0B93FCCF386957795679514
S1132000B395D9F73EF490958095709561957F4F7F
S11320108F4F9F4F0895E89409C097FB3EF4909525
S11320208095709561957F4F8F4F9F4F9923A9F0AD
S1132030F92F96E9BB279395F6958795779567953C
S1132040B795F111F8CFFAF4BB0F11F460FF1BC080
S11320506F5F7F4F8F4F9F4F16C0882311F096E913
S113206011C0772321F09EE8872F762F05C06623C1
S113207071F096E8862F70E060E02AF09A95660F7A
S1132080771F881FDAF7880F9695879597F9089533
S113209097F99F6780E870E060E008959FEF80EC17
S11320A0089500240A9416161706180609060895BA
S11320B000240A94121613061406050608950C94B7
S11320C04E100E94B710D8F3E894E0E0BB279F5766
S11320D0F0F02AED3FE049EC06C0EE0FBB0F661F9F
S11320E0771F881F28F0B23A62077307840728F025
S11320F0B25A620B730B840BE3959A9572F780388E
S113210030F49A95BB0F661F771F881FD2F790484B
S11321100C944F11092E0394000C11F4882352F0EF
S1132120BB0F40F4BF2B11F460FF04C06F5F7F4FFF
S11321308F4F9F4F0895EF93E0FF07C0A2EA2AED67
S11321403FE049EC5FEB0E947B0F0E948A100F90E6
S1132150039401FC9058E4E5F0E00C945B1157FD06
S11321609058440F551F59F05F3F71F04795880F01
S113217097FB991F61F09F3F79F087950895121698
S113218013061406551FF2CF4695F1DF08C0161644
S113219017061806991FF1CF8695710561050894F5
S11321A00895E894BB2766277727CB0197F908950C
S11321B00E94EB100C948A100E94511038F00E9477
S11321C0581020F0952311F00C9448100C944E10E4
S11321D011240C94D2100E94AF1070F3959FC1F398
S11321E0950F50E0551F629FF001729FBB27F00DC1
S11321F0B11D639FAA27F00DB11DAA1F649F662716
S1132200B00DA11D661F829F2227B00DA11D621F64
S1132210739FB00DA11D621F839FA00D611D221F1E
S1132220749F3327A00D611D231F849F600D211D02
S1132230822F762F6A2F11249F5750409AF0F1F085
S113224088234AF0EE0FFF1FBB1F661F771F881FEE
S113225091505040A9F79E3F510580F00C944810CE
S11322600C94D2105F3FE4F3983ED4F386957795AF
S11322706795B795F795E7959F5FC1F7FE2B880F94
S1132280911D9695879597F908959F930E946110E3
S11322900F9007FCEE5F0C949B109F3F31F0915020
S11322A020F4879577956795B795880F911D969536
S11322B0879597F908959F938F937F936F93FF93D7
S11322C0EF939B01AC010E94D810EF91FF910E9403
S11322D06F112F913F914F915F910C94D810DF9320
S11322E0CF931F930F93FF92EF92DF927B018C01A8
S11322F0689406C0DA2EEF010E94EB10FE01E89408
S1132300A5912591359145915591A6F3EF010E9430
S11323107B0FFE019701A801DA9469F7DF90EF9033
S1132320FF900F911F91CF91DF910895DB018F935F
S11323309F930E94DC11BF91AF91A29F800D911DCC
S1132340A39F900DB29F900D1124089597FB072E23
S113235016F4009407D077FD09D00E94EF1107FC12
S113236005D03EF4909581959F4F089570956195A1
S11323707F4F0895A1E21A2EAA1BBB1BFD010DC0BD
S1132380AA1FBB1FEE1FFF1FA217B307E407F50721
S113239020F0A21BB30BE40BF50B661F771F881FFD
S11323A0991F1A9469F760957095809590959B0193
S11323B0AC01BD01CF0108950E940912A59F900DA3
S11323C0B49F900DA49F800D911D11240895B7FF13
S11323D00C94DC110E94DC11821B930B0895AA1B40
S11323E0BB1B51E107C0AA1FBB1FA617B70710F0FC
S11323F0A61BB70B881F991F5A95A9F7809590952E
S1132400BC01CD010895EE0FFF1F0590F491E02D5E
S11324100994A29FB001B39FC001A39F700D811DB9
S11324201124911DB29F700D811D1124911D0895D9
S11324308F929F92AF92BF92CF92DF92EF92FF92D0
S1132440CF93DF93EC01688179818A819B81611547
S113245071058105910521F464E279ED8BE597E03E
S11324602DE133EF41E050E00E94741249015A011A
S11324709B01AC01A7EAB1E40E94DC116B017C0171
S1132480ACEEB4EFA50194010E94EA11DC01CB018A
S11324908C0D9D1DAE1DBF1DB7FF03C00197A10983
S11324A0B04888839983AA83BB839F77DF91CF91B8
S11324B0FF90EF90DF90CF90BF90AF909F908F9060
S11324C008950E941812089580E690E00E94181260
S11324D00895A0E0B0E08093600090936100A09321
S11324E06200B09363000895052E97FB1EF40094D8
S11324F00E948B1257FD07D00E94BA1107FC03D02B
S11325004EF40C948B1250954095309521953F4F85
S11325104F4F5F4F089590958095709561957F4FCB
S10D25208F4F9F4F0895F894FFCFEA
S113252A01000000010047414D45204F5645520025
S9030000FC
